{
  "_format": "hh-sol-artifact-1",
  "contractName": "Flashloan",
  "sourceName": "contracts/Flashloan.sol",
  "abi": [
    {
      "anonymous": false,
      "inputs": [
        {
          "indexed": false,
          "internalType": "address",
          "name": "recipient",
          "type": "address"
        },
        {
          "indexed": false,
          "internalType": "uint256",
          "name": "profit",
          "type": "uint256"
        }
      ],
      "name": "SentProfit",
      "type": "event"
    },
    {
      "anonymous": false,
      "inputs": [
        {
          "indexed": false,
          "internalType": "address",
          "name": "token",
          "type": "address"
        },
        {
          "indexed": false,
          "internalType": "uint256",
          "name": "amount",
          "type": "uint256"
        }
      ],
      "name": "SwapFinished",
      "type": "event"
    },
    {
      "inputs": [
        {
          "internalType": "address",
          "name": "sender",
          "type": "address"
        },
        {
          "internalType": "uint256",
          "name": "baseAmount",
          "type": "uint256"
        },
        {
          "internalType": "uint256",
          "name": "quoteAmount",
          "type": "uint256"
        },
        {
          "internalType": "bytes",
          "name": "data",
          "type": "bytes"
        }
      ],
      "name": "DPPFlashLoanCall",
      "outputs": [],
      "stateMutability": "nonpayable",
      "type": "function"
    },
    {
      "inputs": [
        {
          "internalType": "address",
          "name": "sender",
          "type": "address"
        },
        {
          "internalType": "uint256",
          "name": "baseAmount",
          "type": "uint256"
        },
        {
          "internalType": "uint256",
          "name": "quoteAmount",
          "type": "uint256"
        },
        {
          "internalType": "bytes",
          "name": "data",
          "type": "bytes"
        }
      ],
      "name": "DSPFlashLoanCall",
      "outputs": [],
      "stateMutability": "nonpayable",
      "type": "function"
    },
    {
      "inputs": [
        {
          "internalType": "address",
          "name": "sender",
          "type": "address"
        },
        {
          "internalType": "uint256",
          "name": "baseAmount",
          "type": "uint256"
        },
        {
          "internalType": "uint256",
          "name": "quoteAmount",
          "type": "uint256"
        },
        {
          "internalType": "bytes",
          "name": "data",
          "type": "bytes"
        }
      ],
      "name": "DVMFlashLoanCall",
      "outputs": [],
      "stateMutability": "nonpayable",
      "type": "function"
    },
    {
      "inputs": [
        {
          "components": [
            {
              "internalType": "address",
              "name": "flashLoanPool",
              "type": "address"
            },
            {
              "internalType": "uint256",
              "name": "loanAmount",
              "type": "uint256"
            },
            {
              "components": [
                {
                  "internalType": "address[]",
                  "name": "path",
                  "type": "address[]"
                },
                {
                  "internalType": "uint8",
                  "name": "protocol",
                  "type": "uint8"
                },
                {
                  "internalType": "address",
                  "name": "pool",
                  "type": "address"
                },
                {
                  "internalType": "uint24[]",
                  "name": "fee",
                  "type": "uint24[]"
                }
              ],
              "internalType": "struct IFlashloan.Route[]",
              "name": "firstRoutes",
              "type": "tuple[]"
            },
            {
              "components": [
                {
                  "internalType": "address[]",
                  "name": "path",
                  "type": "address[]"
                },
                {
                  "internalType": "uint8",
                  "name": "protocol",
                  "type": "uint8"
                },
                {
                  "internalType": "address",
                  "name": "pool",
                  "type": "address"
                },
                {
                  "internalType": "uint24[]",
                  "name": "fee",
                  "type": "uint24[]"
                }
              ],
              "internalType": "struct IFlashloan.Route[]",
              "name": "secondRoutes",
              "type": "tuple[]"
            }
          ],
          "internalType": "struct IFlashloan.FlashParams",
          "name": "params",
          "type": "tuple"
        }
      ],
      "name": "dodoFlashLoan",
      "outputs": [],
      "stateMutability": "nonpayable",
      "type": "function"
    }
  ],
  "bytecode": "0x608060405234801561001057600080fd5b5061212f806100206000396000f3fe608060405234801561001057600080fd5b506004361061004c5760003560e01c80636bf2b46d146100515780637ed1f1dd14610066578063d5b9979714610066578063eb2021c314610066575b600080fd5b61006461005f366004611be2565b610079565b005b6100646100743660046119e4565b610516565b80600081604001516000815181106100a157634e487b7160e01b600052603260045260246000fd5b6020026020010151600001516000815181106100cd57634e487b7160e01b600052603260045260246000fd5b60200260200101519050600082600001516001600160a01b0316634a248d2a6040518163ffffffff1660e01b815260040160206040518083038186803b15801561011657600080fd5b505afa15801561012a573d6000803e3d6000fd5b505050506040513d601f19601f8201168201806040525081019061014e91906119c8565b6001600160a01b0316826001600160a01b0316149050600083600001516001600160a01b031663d4b970466040518163ffffffff1660e01b815260040160206040518083038186803b1580156101a357600080fd5b505afa1580156101b7573d6000803e3d6000fd5b505050506040513d601f19601f820116820180604052508101906101db91906119c8565b6001600160a01b0316836001600160a01b031614905081806101fa5750805b61024b5760405162461bcd60e51b815260206004820152601c60248201527f57726f6e6720666c6173686c6f616e20706f6f6c20616464726573730000000060448201526064015b60405180910390fd5b60006040518060a00160405280336001600160a01b0316815260200187600001516001600160a01b03168152602001876020015181526020018760400151815260200187606001518152506040516020016102a69190611ee2565b6040516020818303038152906040529050600086604001516000815181106102de57634e487b7160e01b600052603260045260246000fd5b60200260200101516000015160008151811061030a57634e487b7160e01b600052603260045260246000fd5b60200260200101519050806001600160a01b031687600001516001600160a01b0316634a248d2a6040518163ffffffff1660e01b815260040160206040518083038186803b15801561035b57600080fd5b505afa15801561036f573d6000803e3d6000fd5b505050506040513d601f19601f8201168201806040525081019061039391906119c8565b6001600160a01b031614156104125786516020880151604051633429253960e21b81526001600160a01b039092169163d0a494e4916103db9160009030908890600401611e53565b600060405180830381600087803b1580156103f557600080fd5b505af1158015610409573d6000803e3d6000fd5b5050505061050d565b806001600160a01b031687600001516001600160a01b031663d4b970466040518163ffffffff1660e01b815260040160206040518083038186803b15801561045957600080fd5b505afa15801561046d573d6000803e3d6000fd5b505050506040513d601f19601f8201168201806040525081019061049191906119c8565b6001600160a01b0316141561050d5786516020880151604051633429253960e21b81526001600160a01b039092169163d0a494e4916104da916000919030908890600401611e53565b600060405180830381600087803b1580156104f457600080fd5b505af1158015610508573d6000803e3d6000fd5b505050505b50505050505050565b610523858585858561052a565b5050505050565b600061053882840184611b28565b90506000816060015160008151811061056157634e487b7160e01b600052603260045260246000fd5b60200260200101516000015160008151811061058d57634e487b7160e01b600052603260045260246000fd5b602090810291909101015160408084015190516370a0823160e01b8152306004820152919250906001600160a01b038316906370a082319060240160206040518083038186803b1580156105e057600080fd5b505afa1580156105f4573d6000803e3d6000fd5b505050506040513d601f19601f820116820180604052508101906106189190611c8b565b10156106665760405162461bcd60e51b815260206004820152601b60248201527f4661696c656420746f20626f72726f77206c6f616e20746f6b656e00000000006044820152606401610242565b60005b8260600151518110156106bc576106aa8360600151828151811061069d57634e487b7160e01b600052603260045260246000fd5b6020026020010151610a7a565b806106b48161207a565b915050610669565b5060005b826080015151811015610706576106f48360800151828151811061069d57634e487b7160e01b600052603260045260246000fd5b806106fe8161207a565b9150506106c0565b506040516370a0823160e01b81523060048201527ffdc1bd83776f7aa310fcf2b1915ae1c6c16a4cfb48ebcea2bf15febd084c03de9082906001600160a01b038216906370a082319060240160206040518083038186803b15801561076a57600080fd5b505afa15801561077e573d6000803e3d6000fd5b505050506040513d601f19601f820116820180604052508101906107a29190611c8b565b604080516001600160a01b03909316835260208301919091520160405180910390a160408281015190516370a0823160e01b81523060048201526001600160a01b038316906370a082319060240160206040518083038186803b15801561080857600080fd5b505afa15801561081c573d6000803e3d6000fd5b505050506040513d601f19601f820116820180604052508101906108409190611c8b565b101561088e5760405162461bcd60e51b815260206004820181905260248201527f4e6f7420656e6f75676820616d6f756e7420746f2072657475726e206c6f616e6044820152606401610242565b6020820151604080840151905163a9059cbb60e01b81526001600160a01b0384169263a9059cbb926108d6926004016001600160a01b03929092168252602082015260400190565b602060405180830381600087803b1580156108f057600080fd5b505af1158015610904573d6000803e3d6000fd5b505050506040513d601f19601f820116820180604052508101906109289190611b08565b506040516370a0823160e01b81523060048201526000906001600160a01b038316906370a082319060240160206040518083038186803b15801561096b57600080fd5b505afa15801561097f573d6000803e3d6000fd5b505050506040513d601f19601f820116820180604052508101906109a39190611c8b565b835160405163a9059cbb60e01b81526001600160a01b0391821660048201526024810183905291925083169063a9059cbb90604401602060405180830381600087803b1580156109f257600080fd5b505af1158015610a06573d6000803e3d6000fd5b505050506040513d601f19601f82011682018060405250810190610a2a9190611b08565b508251604080516001600160a01b039092168252602082018390527f2b312ac7b7c9b2fc53c9398d48ed2df4c1d192a03cc090b47087b2936ba0a61f910160405180910390a15050505050505050565b806003816020015160ff1610610ac35760405162461bcd60e51b815260206004820152600e60248201526d15dc9bdb99c81c1c9bdd1bd8dbdb60921b6044820152606401610242565b602082015160ff16610adc57610ad882610b13565b5050565b816020015160ff1660011415610afa57610af582610f74565b505050565b816020015160ff1660021415610ad857610af5826110f6565b60008160000151600081518110610b3a57634e487b7160e01b600052603260045260246000fd5b6020026020010151905060008260000151600181518110610b6b57634e487b7160e01b600052603260045260246000fd5b60209081029190910101516040516370a0823160e01b81523060048201529091506000906001600160a01b038416906370a082319060240160206040518083038186803b158015610bbb57600080fd5b505afa158015610bcf573d6000803e3d6000fd5b505050506040513d601f19601f82011682018060405250810190610bf39190611c8b565b6040858101518151600180825281840190935292935091600091602080830190803683370190505090508181600081518110610c3f57634e487b7160e01b600052603260045260246000fd5b60200260200101906001600160a01b031690816001600160a01b0316815250506000826001600160a01b0316634a248d2a6040518163ffffffff1660e01b815260040160206040518083038186803b158015610c9a57600080fd5b505afa158015610cae573d6000803e3d6000fd5b505050506040513d601f19601f82011682018060405250810190610cd291906119c8565b90506000866001600160a01b0316826001600160a01b031614610cf6576001610cf9565b60005b60ff16905080610dd957856001600160a01b0316846001600160a01b031663d4b970466040518163ffffffff1660e01b815260040160206040518083038186803b158015610d4657600080fd5b505afa158015610d5a573d6000803e3d6000fd5b505050506040513d601f19601f82011682018060405250810190610d7e91906119c8565b6001600160a01b031614610dd45760405162461bcd60e51b815260206004820152601a60248201527f57726f6e6720646f646f20563220706f6f6c20616464726573730000000000006044820152606401610242565b610eaa565b856001600160a01b0316846001600160a01b0316634a248d2a6040518163ffffffff1660e01b815260040160206040518083038186803b158015610e1c57600080fd5b505afa158015610e30573d6000803e3d6000fd5b505050506040513d601f19601f82011682018060405250810190610e5491906119c8565b6001600160a01b031614610eaa5760405162461bcd60e51b815260206004820152601a60248201527f57726f6e6720646f646f20563220706f6f6c20616464726573730000000000006044820152606401610242565b42736d310348d5c12009854dfcf72e0df9027e8cb4f4610ecb89828961164f565b60405163f87dc1b760e01b815273a222e6a71d1a1dd5f279805fbe38d5329c1d0e7090819063f87dc1b790610f14908d908d908d906001908d908c906000908d90600401611df7565b602060405180830381600087803b158015610f2e57600080fd5b505af1158015610f42573d6000803e3d6000fd5b505050506040513d601f19601f82011682018060405250810190610f669190611c8b565b505050505050505050505050565b606060008260000151600081518110610f9d57634e487b7160e01b600052603260045260246000fd5b60209081029190910101516040516370a0823160e01b81523060048201526001600160a01b03909116906370a082319060240160206040518083038186803b158015610fe857600080fd5b505afa158015610ffc573d6000803e3d6000fd5b505050506040513d601f19601f820116820180604052508101906110209190611c8b565b905061105d836000015160008151811061104a57634e487b7160e01b600052603260045260246000fd5b602002602001015184604001518361164f565b604080840151845191516338ed173960e01b81526001600160a01b03909116916338ed1739916110999185916001919030904290600401611f4e565b600060405180830381600087803b1580156110b357600080fd5b505af11580156110c7573d6000803e3d6000fd5b505050506040513d6000823e601f3d908101601f191682016040526110ef9190810190611a75565b9392505050565b600081600281600001515110156111445760405162461bcd60e51b81526020600482015260126024820152710aee4dedcce40e4deeae8ca40d8cadccee8d60731b6044820152606401610242565b80515160608201515161115890600161202b565b146111985760405162461bcd60e51b815260206004820152601060248201526f0aee4dedcce40cccaca40d8cadccee8d60831b6044820152606401610242565b600083600001516000815181106111bf57634e487b7160e01b600052603260045260246000fd5b60209081029190910101516040516370a0823160e01b81523060048201529091506000906001600160a01b038316906370a082319060240160206040518083038186803b15801561120f57600080fd5b505afa158015611223573d6000803e3d6000fd5b505050506040513d601f19601f820116820180604052508101906112479190611c8b565b905073e592427a0aece92de3edee1f18e0157c0586156461126983828461164f565b8551516002141561141957806001600160a01b031663414bf389604051806101000160405280866001600160a01b0316815260200189600001516001815181106112c357634e487b7160e01b600052603260045260246000fd5b60200260200101516001600160a01b0316815260200189606001516000815181106112fe57634e487b7160e01b600052603260045260246000fd5b602002602001015162ffffff168152602001306001600160a01b031681526020014281526020018581526020016000815260200160006001600160a01b03168152506040518263ffffffff1660e01b81526004016113c0919081516001600160a01b03908116825260208084015182169083015260408084015162ffffff16908301526060808401518216908301526080808401519083015260a0838101519083015260c0808401519083015260e09283015116918101919091526101000190565b602060405180830381600087803b1580156113da57600080fd5b505af11580156113ee573d6000803e3d6000fd5b505050506040513d601f19601f820116820180604052508101906114129190611c8b565b9450611646565b8551516002101561164657604080516020810190915260008082525b87515161144490600190612063565b8160ff1610156115155761150188600001518260ff168151811061147857634e487b7160e01b600052603260045260246000fd5b602002602001015189606001518360ff16815181106114a757634e487b7160e01b600052603260045260246000fd5b60200260200101516040516020016114ea92919060609290921b6bffffffffffffffffffffffff1916825260e81b6001600160e81b031916601482015260170190565b60408051601f19818403018152919052839061170f565b91508061150d81612095565b915050611435565b50816001600160a01b031663c04b8d596040518060a001604052806115af8b6000015160018d600001515161154a9190612063565b8151811061156857634e487b7160e01b600052603260045260246000fd5b6020026020010151604051602001611598919060609190911b6bffffffffffffffffffffffff1916815260140190565b60408051601f19818403018152919052869061170f565b8152602001306001600160a01b0316815260200142815260200186815260200160008152506040518263ffffffff1660e01b81526004016115f09190611e8a565b602060405180830381600087803b15801561160a57600080fd5b505af115801561161e573d6000803e3d6000fd5b505050506040513d601f19601f820116820180604052508101906116429190611c8b565b9550505b50505050919050565b60405163095ea7b360e01b81526001600160a01b0383811660048301526024820183905284169063095ea7b390604401602060405180830381600087803b15801561169957600080fd5b505af11580156116ad573d6000803e3d6000fd5b505050506040513d601f19601f820116820180604052508101906116d19190611b08565b610af55760405162461bcd60e51b815260206004820152600f60248201526e30b8383937bb32903330b4b632b21760891b6044820152606401610242565b8151815160609190600090611724908361202b565b9050600060208651601f611738919061202b565b6117429190612043565b9050600060208651601f611756919061202b565b6117609190612043565b905060405183815260005b838110156117875760010160208102898101519083015261176b565b5060005b828110156117a957600101602081028881015190870183015261178b565b50928301602001604052509095945050505050565b80356117c9816120e1565b919050565b600082601f8301126117de578081fd5b60206117f26117ed8435612007565b611fd6565b808435825282820191508285018684873560051b8801011115611813578485fd5b845b86358110156119315767ffffffffffffffff8083351115611834578687fd5b823588016080818b03601f1901121561184b578788fd5b611853611f8a565b878201358381111561186357898afd5b8201603f81018c1361187357898afd5b888101356118836117ed82612007565b808282528b82019150604084018f60408560051b87010111156118a4578d8efd5b8d94505b838510156118d0576118ba81356120e1565b8035835260019490940193918c01918c016118a8565b508452506118e3915050604083016119b7565b888201526118f3606083016117be565b604082015260808201358381111561190957898afd5b6119178c8a8386010161193d565b606083015250865250509284019290840190600101611815565b50909695505050505050565b600082601f83011261194d578081fd5b8135602061195d6117ed83612007565b80838252828201915082860187848660051b890101111561197c578586fd5b855b858110156119aa57813562ffffff81168114611998578788fd5b8452928401929084019060010161197e565b5090979650505050505050565b803560ff811681146117c957600080fd5b6000602082840312156119d9578081fd5b81516110ef816120e1565b6000806000806000608086880312156119fb578081fd5b8535611a06816120e1565b94506020860135935060408601359250606086013567ffffffffffffffff80821115611a30578283fd5b818801915088601f830112611a43578283fd5b813581811115611a51578384fd5b896020828501011115611a62578384fd5b9699959850939650602001949392505050565b60006020808385031215611a87578182fd5b825167ffffffffffffffff811115611a9d578283fd5b8301601f81018513611aad578283fd5b8051611abb6117ed82612007565b80828252848201915084840188868560051b8701011115611ada578687fd5b8694505b83851015611afc578051835260019490940193918501918501611ade565b50979650505050505050565b600060208284031215611b19578081fd5b815180151581146110ef578182fd5b600060208284031215611b39578081fd5b813567ffffffffffffffff80821115611b50578283fd5b9083019060a08286031215611b63578283fd5b611b6b611fb3565b8235611b76816120e1565b8152611b84602084016117be565b602082015260408301356040820152606083013582811115611ba4578485fd5b611bb0878286016117ce565b606083015250608083013582811115611bc7578485fd5b611bd3878286016117ce565b60808301525095945050505050565b600060208284031215611bf3578081fd5b813567ffffffffffffffff80821115611c0a578283fd5b9083019060808286031215611c1d578283fd5b611c25611f8a565b8235611c30816120e1565b815260208381013590820152604083013582811115611c4d578485fd5b611c59878286016117ce565b604083015250606083013582811115611c70578485fd5b611c7c878286016117ce565b60608301525095945050505050565b600060208284031215611c9c578081fd5b5051919050565b6000815180845260208085019450808401835b83811015611cdb5781516001600160a01b031687529582019590820190600101611cb6565b509495945050505050565b600081518084526020808501808196508360051b81019150828601855b85811015611d9f578284038952815160808151818752611d2582880182611ca3565b8389015160ff16888a01526040808501516001600160a01b031690890152606093840151888203948901949094528351808252938901938b935090890191505b80831015611d8a57835162ffffff168252928801926001929092019190880190611d65565b509a87019a9550505090840190600101611d03565b5091979650505050505050565b60008151808452815b81811015611dd157602081850181015186830182015201611db5565b81811115611de25782602083870101525b50601f01601f19169290920160200192915050565b6001600160a01b03898116825288166020820152604081018790526060810186905261010060808201819052600090611e3283820188611ca3565b60a0840196909652505091151560c083015260e09091015295945050505050565b84815283602082015260018060a01b0383166040820152608060608201526000611e806080830184611dac565b9695505050505050565b602081526000825160a06020840152611ea660c0840182611dac565b905060018060a01b0360208501511660408401526040840151606084015260608401516080840152608084015160a08401528091505092915050565b60208152600060018060a01b038084511660208401528060208501511660408401525060408301516060830152606083015160a06080840152611f2860c0840182611ce6565b90506080840151601f198483030160a0850152611f458282611ce6565b95945050505050565b85815284602082015260a060408201526000611f6d60a0830186611ca3565b6001600160a01b0394909416606083015250608001529392505050565b6040516080810167ffffffffffffffff81118282101715611fad57611fad6120cb565b60405290565b60405160a0810167ffffffffffffffff81118282101715611fad57611fad6120cb565b604051601f8201601f1916810167ffffffffffffffff81118282101715611fff57611fff6120cb565b604052919050565b600067ffffffffffffffff821115612021576120216120cb565b5060051b60200190565b6000821982111561203e5761203e6120b5565b500190565b60008261205e57634e487b7160e01b81526012600452602481fd5b500490565b600082821015612075576120756120b5565b500390565b600060001982141561208e5761208e6120b5565b5060010190565b600060ff821660ff8114156120ac576120ac6120b5565b60010192915050565b634e487b7160e01b600052601160045260246000fd5b634e487b7160e01b600052604160045260246000fd5b6001600160a01b03811681146120f657600080fd5b5056fea2646970667358221220440a15bf636286852d74c762262a06facd3ec164ece01d83284bb26659a03be764736f6c63430008040033",
  "linkReferences": {},
  "deployedLinkReferences": {}
}