{
  "_format": "hh-sol-artifact-1",
  "contractName": "Flashloan",
  "sourceName": "contracts/Flashloan.sol",
  "abi": [
    {
      "anonymous": false,
      "inputs": [
        {
          "indexed": false,
          "internalType": "address",
          "name": "recipient",
          "type": "address"
        },
        {
          "indexed": false,
          "internalType": "uint256",
          "name": "profit",
          "type": "uint256"
        }
      ],
      "name": "SentProfit",
      "type": "event"
    },
    {
      "anonymous": false,
      "inputs": [
        {
          "indexed": false,
          "internalType": "address",
          "name": "token",
          "type": "address"
        },
        {
          "indexed": false,
          "internalType": "uint256",
          "name": "amount",
          "type": "uint256"
        }
      ],
      "name": "SwapFinished",
      "type": "event"
    },
    {
      "anonymous": false,
      "inputs": [
        {
          "indexed": false,
          "internalType": "address",
          "name": "recipient",
          "type": "address"
        },
        {
          "indexed": false,
          "internalType": "uint256",
          "name": "amount",
          "type": "uint256"
        }
      ],
      "name": "WithdrawToken",
      "type": "event"
    },
    {
      "inputs": [
        {
          "internalType": "address",
          "name": "sender",
          "type": "address"
        },
        {
          "internalType": "uint256",
          "name": "baseAmount",
          "type": "uint256"
        },
        {
          "internalType": "uint256",
          "name": "quoteAmount",
          "type": "uint256"
        },
        {
          "internalType": "bytes",
          "name": "data",
          "type": "bytes"
        }
      ],
      "name": "DPPFlashLoanCall",
      "outputs": [],
      "stateMutability": "nonpayable",
      "type": "function"
    },
    {
      "inputs": [
        {
          "internalType": "address",
          "name": "sender",
          "type": "address"
        },
        {
          "internalType": "uint256",
          "name": "baseAmount",
          "type": "uint256"
        },
        {
          "internalType": "uint256",
          "name": "quoteAmount",
          "type": "uint256"
        },
        {
          "internalType": "bytes",
          "name": "data",
          "type": "bytes"
        }
      ],
      "name": "DSPFlashLoanCall",
      "outputs": [],
      "stateMutability": "nonpayable",
      "type": "function"
    },
    {
      "inputs": [
        {
          "internalType": "address",
          "name": "sender",
          "type": "address"
        },
        {
          "internalType": "uint256",
          "name": "baseAmount",
          "type": "uint256"
        },
        {
          "internalType": "uint256",
          "name": "quoteAmount",
          "type": "uint256"
        },
        {
          "internalType": "bytes",
          "name": "data",
          "type": "bytes"
        }
      ],
      "name": "DVMFlashLoanCall",
      "outputs": [],
      "stateMutability": "nonpayable",
      "type": "function"
    },
    {
      "inputs": [
        {
          "components": [
            {
              "internalType": "address",
              "name": "flashLoanPool",
              "type": "address"
            },
            {
              "internalType": "uint256",
              "name": "loanAmount",
              "type": "uint256"
            },
            {
              "components": [
                {
                  "internalType": "address[]",
                  "name": "path",
                  "type": "address[]"
                },
                {
                  "internalType": "contract IUniswapV2Router02",
                  "name": "router",
                  "type": "address"
                }
              ],
              "internalType": "struct Flashloan.Route[]",
              "name": "firstRoutes",
              "type": "tuple[]"
            },
            {
              "components": [
                {
                  "internalType": "address[]",
                  "name": "path",
                  "type": "address[]"
                },
                {
                  "internalType": "contract IUniswapV2Router02",
                  "name": "router",
                  "type": "address"
                }
              ],
              "internalType": "struct Flashloan.Route[]",
              "name": "secondRoutes",
              "type": "tuple[]"
            }
          ],
          "internalType": "struct Flashloan.FlashParams",
          "name": "params",
          "type": "tuple"
        }
      ],
      "name": "dodoFlashLoan",
      "outputs": [],
      "stateMutability": "nonpayable",
      "type": "function"
    }
  ],
  "bytecode": "0x608060405234801561001057600080fd5b50611b95806100206000396000f3fe608060405234801561001057600080fd5b506004361061004c5760003560e01c80637ed1f1dd14610051578063b27f6a251461006d578063d5b9979714610089578063eb2021c3146100a5575b600080fd5b61006b600480360381019061006691906110ac565b6100c1565b005b610087600480360381019061008291906111d7565b6100d5565b005b6100a3600480360381019061009e91906110ac565b61039e565b005b6100bf60048036038101906100ba91906110ac565b6103b2565b005b6100ce85858585856103c6565b5050505050565b60006040518060a001604052803373ffffffffffffffffffffffffffffffffffffffff168152602001836000015173ffffffffffffffffffffffffffffffffffffffff1681526020018360200151815260200183604001518152602001836060015181525060405160200161014a9190611653565b60405160208183030381529060405290506000826000015173ffffffffffffffffffffffffffffffffffffffff16634a248d2a6040518163ffffffff1660e01b815260040160206040518083038186803b1580156101a757600080fd5b505afa1580156101bb573d6000803e3d6000fd5b505050506040513d601f19601f820116820180604052508101906101df9190611083565b9050826040015160008151811061021f577f4e487b7100000000000000000000000000000000000000000000000000000000600052603260045260246000fd5b602002602001015160000151600081518110610264577f4e487b7100000000000000000000000000000000000000000000000000000000600052603260045260246000fd5b602002602001015173ffffffffffffffffffffffffffffffffffffffff168173ffffffffffffffffffffffffffffffffffffffff16141561031e57826000015173ffffffffffffffffffffffffffffffffffffffff1663d0a494e48460200151600030866040518563ffffffff1660e01b81526004016102e79493929190611675565b600060405180830381600087803b15801561030157600080fd5b505af1158015610315573d6000803e3d6000fd5b50505050610399565b826000015173ffffffffffffffffffffffffffffffffffffffff1663d0a494e46000856020015130866040518563ffffffff1660e01b815260040161036694939291906115a7565b600060405180830381600087803b15801561038057600080fd5b505af1158015610394573d6000803e3d6000fd5b505050505b505050565b6103ab85858585856103c6565b5050505050565b6103bf85858585856103c6565b5050505050565b600082828101906103d79190611196565b905060008160600151600081518110610419577f4e487b7100000000000000000000000000000000000000000000000000000000600052603260045260246000fd5b60200260200101516000015160008151811061045e577f4e487b7100000000000000000000000000000000000000000000000000000000600052603260045260246000fd5b602002602001015190503073ffffffffffffffffffffffffffffffffffffffff168773ffffffffffffffffffffffffffffffffffffffff161480156104d25750816020015173ffffffffffffffffffffffffffffffffffffffff163373ffffffffffffffffffffffffffffffffffffffff16145b610511576040517f08c379a0000000000000000000000000000000000000000000000000000000008152600401610508906115f3565b60405180910390fd5b60005b8260600151518110156105825761056e83606001518281518110610561577f4e487b7100000000000000000000000000000000000000000000000000000000600052603260045260246000fd5b6020026020010151610981565b50808061057a906119d0565b915050610514565b5060005b8260800151518110156105f4576105e0836080015182815181106105d3577f4e487b7100000000000000000000000000000000000000000000000000000000600052603260045260246000fd5b6020026020010151610981565b5080806105ec906119d0565b915050610586565b507ffdc1bd83776f7aa310fcf2b1915ae1c6c16a4cfb48ebcea2bf15febd084c03de818273ffffffffffffffffffffffffffffffffffffffff166370a08231306040518263ffffffff1660e01b81526004016106509190611563565b60206040518083038186803b15801561066857600080fd5b505afa15801561067c573d6000803e3d6000fd5b505050506040513d601f19601f820116820180604052508101906106a09190611218565b6040516106ae92919061157e565b60405180910390a181604001518173ffffffffffffffffffffffffffffffffffffffff166370a08231306040518263ffffffff1660e01b81526004016106f49190611563565b60206040518083038186803b15801561070c57600080fd5b505afa158015610720573d6000803e3d6000fd5b505050506040513d601f19601f820116820180604052508101906107449190611218565b1015610785576040517f08c379a000000000000000000000000000000000000000000000000000000000815260040161077c90611613565b60405180910390fd5b8073ffffffffffffffffffffffffffffffffffffffff1663a9059cbb836020015184604001516040518363ffffffff1660e01b81526004016107c892919061157e565b602060405180830381600087803b1580156107e257600080fd5b505af11580156107f6573d6000803e3d6000fd5b505050506040513d601f19601f8201168201806040525081019061081a919061116d565b5060008173ffffffffffffffffffffffffffffffffffffffff166370a08231306040518263ffffffff1660e01b81526004016108569190611563565b60206040518083038186803b15801561086e57600080fd5b505afa158015610882573d6000803e3d6000fd5b505050506040513d601f19601f820116820180604052508101906108a69190611218565b90508173ffffffffffffffffffffffffffffffffffffffff1663a9059cbb8460000151836040518363ffffffff1660e01b81526004016108e792919061157e565b602060405180830381600087803b15801561090157600080fd5b505af1158015610915573d6000803e3d6000fd5b505050506040513d601f19601f82011682018060405250810190610939919061116d565b507f2b312ac7b7c9b2fc53c9398d48ed2df4c1d192a03cc090b47087b2936ba0a61f83600001518260405161096f92919061157e565b60405180910390a15050505050505050565b6060600082600001516000815181106109c3577f4e487b7100000000000000000000000000000000000000000000000000000000600052603260045260246000fd5b602002602001015173ffffffffffffffffffffffffffffffffffffffff166370a08231306040518263ffffffff1660e01b8152600401610a039190611563565b60206040518083038186803b158015610a1b57600080fd5b505afa158015610a2f573d6000803e3d6000fd5b505050506040513d601f19601f82011682018060405250810190610a539190611218565b90508260000151600081518110610a93577f4e487b7100000000000000000000000000000000000000000000000000000000600052603260045260246000fd5b602002602001015173ffffffffffffffffffffffffffffffffffffffff1663095ea7b38460200151836040518363ffffffff1660e01b8152600401610ad992919061157e565b602060405180830381600087803b158015610af357600080fd5b505af1158015610b07573d6000803e3d6000fd5b505050506040513d601f19601f82011682018060405250810190610b2b919061116d565b610b6a576040517f08c379a0000000000000000000000000000000000000000000000000000000008152600401610b6190611633565b60405180910390fd5b826020015173ffffffffffffffffffffffffffffffffffffffff166338ed173982600186600001513060c842610ba09190611874565b6040518663ffffffff1660e01b8152600401610bc09594939291906116c1565b600060405180830381600087803b158015610bda57600080fd5b505af1158015610bee573d6000803e3d6000fd5b505050506040513d6000823e3d601f19601f82011682018060405250810190610c17919061112c565b915050919050565b6000610c32610c2d84611740565b61171b565b90508083825260208201905082856020860282011115610c5157600080fd5b60005b85811015610c815781610c678882610d7d565b845260208401935060208301925050600181019050610c54565b5050509392505050565b6000610c9e610c998461176c565b61171b565b90508083825260208201905082856020860282011115610cbd57600080fd5b60005b85811015610d0757813567ffffffffffffffff811115610cdf57600080fd5b808601610cec8982610ff5565b85526020850194506020840193505050600181019050610cc0565b5050509392505050565b6000610d24610d1f84611798565b61171b565b90508083825260208201905082856020860282011115610d4357600080fd5b60005b85811015610d735781610d59888261106e565b845260208401935060208301925050600181019050610d46565b5050509392505050565b600081359050610d8c81611b03565b92915050565b600081519050610da181611b03565b92915050565b600082601f830112610db857600080fd5b8135610dc8848260208601610c1f565b91505092915050565b600082601f830112610de257600080fd5b8135610df2848260208601610c8b565b91505092915050565b600082601f830112610e0c57600080fd5b8151610e1c848260208601610d11565b91505092915050565b600081519050610e3481611b1a565b92915050565b60008083601f840112610e4c57600080fd5b8235905067ffffffffffffffff811115610e6557600080fd5b602083019150836001820283011115610e7d57600080fd5b9250929050565b600081359050610e9381611b31565b92915050565b600060a08284031215610eab57600080fd5b610eb560a061171b565b90506000610ec584828501610d7d565b6000830152506020610ed984828501610d7d565b6020830152506040610eed84828501611059565b604083015250606082013567ffffffffffffffff811115610f0d57600080fd5b610f1984828501610dd1565b606083015250608082013567ffffffffffffffff811115610f3957600080fd5b610f4584828501610dd1565b60808301525092915050565b600060808284031215610f6357600080fd5b610f6d608061171b565b90506000610f7d84828501610d7d565b6000830152506020610f9184828501611059565b602083015250604082013567ffffffffffffffff811115610fb157600080fd5b610fbd84828501610dd1565b604083015250606082013567ffffffffffffffff811115610fdd57600080fd5b610fe984828501610dd1565b60608301525092915050565b60006040828403121561100757600080fd5b611011604061171b565b9050600082013567ffffffffffffffff81111561102d57600080fd5b61103984828501610da7565b600083015250602061104d84828501610e84565b60208301525092915050565b60008135905061106881611b48565b92915050565b60008151905061107d81611b48565b92915050565b60006020828403121561109557600080fd5b60006110a384828501610d92565b91505092915050565b6000806000806000608086880312156110c457600080fd5b60006110d288828901610d7d565b95505060206110e388828901611059565b94505060406110f488828901611059565b935050606086013567ffffffffffffffff81111561111157600080fd5b61111d88828901610e3a565b92509250509295509295909350565b60006020828403121561113e57600080fd5b600082015167ffffffffffffffff81111561115857600080fd5b61116484828501610dfb565b91505092915050565b60006020828403121561117f57600080fd5b600061118d84828501610e25565b91505092915050565b6000602082840312156111a857600080fd5b600082013567ffffffffffffffff8111156111c257600080fd5b6111ce84828501610e99565b91505092915050565b6000602082840312156111e957600080fd5b600082013567ffffffffffffffff81111561120357600080fd5b61120f84828501610f51565b91505092915050565b60006020828403121561122a57600080fd5b60006112388482850161106e565b91505092915050565b600061124d838361126d565b60208301905092915050565b60006112658383611508565b905092915050565b611276816118ca565b82525050565b611285816118ca565b82525050565b6000611296826117e4565b6112a0818561181f565b93506112ab836117c4565b8060005b838110156112dc5781516112c38882611241565b97506112ce83611805565b9250506001810190506112af565b5085935050505092915050565b60006112f4826117e4565b6112fe8185611830565b9350611309836117c4565b8060005b8381101561133a5781516113218882611241565b975061132c83611805565b92505060018101905061130d565b5085935050505092915050565b6000611352826117ef565b61135c8185611841565b93508360208202850161136e856117d4565b8060005b858110156113aa578484038952815161138b8582611259565b945061139683611812565b925060208a01995050600181019050611372565b50829750879550505050505092915050565b60006113c7826117fa565b6113d18185611852565b93506113e181856020860161196c565b6113ea81611a77565b840191505092915050565b6113fe81611924565b82525050565b61140d81611948565b82525050565b61141c8161195a565b82525050565b600061142f601383611863565b915061143a82611a88565b602082019050919050565b6000611452602083611863565b915061145d82611ab1565b602082019050919050565b6000611475600f83611863565b915061148082611ada565b602082019050919050565b600060a0830160008301516114a3600086018261126d565b5060208301516114b6602086018261126d565b5060408301516114c96040860182611545565b50606083015184820360608601526114e18282611347565b915050608083015184820360808601526114fb8282611347565b9150508091505092915050565b60006040830160008301518482036000860152611525828261128b565b915050602083015161153a60208601826113f5565b508091505092915050565b61154e8161191a565b82525050565b61155d8161191a565b82525050565b6000602082019050611578600083018461127c565b92915050565b6000604082019050611593600083018561127c565b6115a06020830184611554565b9392505050565b60006080820190506115bc6000830187611404565b6115c96020830186611554565b6115d6604083018561127c565b81810360608301526115e881846113bc565b905095945050505050565b6000602082019050818103600083015261160c81611422565b9050919050565b6000602082019050818103600083015261162c81611445565b9050919050565b6000602082019050818103600083015261164c81611468565b9050919050565b6000602082019050818103600083015261166d818461148b565b905092915050565b600060808201905061168a6000830187611554565b6116976020830186611404565b6116a4604083018561127c565b81810360608301526116b681846113bc565b905095945050505050565b600060a0820190506116d66000830188611554565b6116e36020830187611413565b81810360408301526116f581866112e9565b9050611704606083018561127c565b6117116080830184611554565b9695505050505050565b6000611725611736565b9050611731828261199f565b919050565b6000604051905090565b600067ffffffffffffffff82111561175b5761175a611a48565b5b602082029050602081019050919050565b600067ffffffffffffffff82111561178757611786611a48565b5b602082029050602081019050919050565b600067ffffffffffffffff8211156117b3576117b2611a48565b5b602082029050602081019050919050565b6000819050602082019050919050565b6000819050602082019050919050565b600081519050919050565b600081519050919050565b600081519050919050565b6000602082019050919050565b6000602082019050919050565b600082825260208201905092915050565b600082825260208201905092915050565b600082825260208201905092915050565b600082825260208201905092915050565b600082825260208201905092915050565b600061187f8261191a565b915061188a8361191a565b9250827fffffffffffffffffffffffffffffffffffffffffffffffffffffffffffffffff038211156118bf576118be611a19565b5b828201905092915050565b60006118d5826118fa565b9050919050565b60008115159050919050565b60006118f3826118ca565b9050919050565b600073ffffffffffffffffffffffffffffffffffffffff82169050919050565b6000819050919050565b600061192f82611936565b9050919050565b6000611941826118fa565b9050919050565b60006119538261191a565b9050919050565b60006119658261191a565b9050919050565b60005b8381101561198a57808201518184015260208101905061196f565b83811115611999576000848401525b50505050565b6119a882611a77565b810181811067ffffffffffffffff821117156119c7576119c6611a48565b5b80604052505050565b60006119db8261191a565b91507fffffffffffffffffffffffffffffffffffffffffffffffffffffffffffffffff821415611a0e57611a0d611a19565b5b600182019050919050565b7f4e487b7100000000000000000000000000000000000000000000000000000000600052601160045260246000fd5b7f4e487b7100000000000000000000000000000000000000000000000000000000600052604160045260246000fd5b6000601f19601f8301169050919050565b7f48414e444c455f464c4153485f4e454e49454400000000000000000000000000600082015250565b7f4e6f7420656e6f75676820616d6f756e7420746f2072657475726e206c6f616e600082015250565b7f617070726f7665206661696c65642e0000000000000000000000000000000000600082015250565b611b0c816118ca565b8114611b1757600080fd5b50565b611b23816118dc565b8114611b2e57600080fd5b50565b611b3a816118e8565b8114611b4557600080fd5b50565b611b518161191a565b8114611b5c57600080fd5b5056fea264697066735822122075462c35c6a0d24ee589ae6572cf7c23d1e2feee326a99446748b30548ab7b6e64736f6c63430008040033",
  "linkReferences": {},
  "deployedLinkReferences": {}
}