{
  "_format": "hh-sol-artifact-1",
  "contractName": "Flashloan",
  "sourceName": "contracts/Flashloan.sol",
  "abi": [
    {
      "anonymous": false,
      "inputs": [
        {
          "indexed": true,
          "internalType": "address",
          "name": "previousOwner",
          "type": "address"
        },
        {
          "indexed": true,
          "internalType": "address",
          "name": "newOwner",
          "type": "address"
        }
      ],
      "name": "OwnershipTransferred",
      "type": "event"
    },
    {
      "anonymous": false,
      "inputs": [
        {
          "indexed": false,
          "internalType": "address",
          "name": "recipient",
          "type": "address"
        },
        {
          "indexed": false,
          "internalType": "uint256",
          "name": "profit",
          "type": "uint256"
        }
      ],
      "name": "SentProfit",
      "type": "event"
    },
    {
      "anonymous": false,
      "inputs": [
        {
          "indexed": false,
          "internalType": "address",
          "name": "token",
          "type": "address"
        },
        {
          "indexed": false,
          "internalType": "uint256",
          "name": "amount",
          "type": "uint256"
        }
      ],
      "name": "SwapFinished",
      "type": "event"
    },
    {
      "anonymous": false,
      "inputs": [
        {
          "indexed": true,
          "internalType": "address",
          "name": "sender",
          "type": "address"
        },
        {
          "indexed": false,
          "internalType": "uint256",
          "name": "amount",
          "type": "uint256"
        }
      ],
      "name": "Withdrawal",
      "type": "event"
    },
    {
      "inputs": [
        {
          "internalType": "address",
          "name": "sender",
          "type": "address"
        },
        {
          "internalType": "uint256",
          "name": "baseAmount",
          "type": "uint256"
        },
        {
          "internalType": "uint256",
          "name": "quoteAmount",
          "type": "uint256"
        },
        {
          "internalType": "bytes",
          "name": "data",
          "type": "bytes"
        }
      ],
      "name": "DPPFlashLoanCall",
      "outputs": [],
      "stateMutability": "nonpayable",
      "type": "function"
    },
    {
      "inputs": [
        {
          "internalType": "address",
          "name": "sender",
          "type": "address"
        },
        {
          "internalType": "uint256",
          "name": "baseAmount",
          "type": "uint256"
        },
        {
          "internalType": "uint256",
          "name": "quoteAmount",
          "type": "uint256"
        },
        {
          "internalType": "bytes",
          "name": "data",
          "type": "bytes"
        }
      ],
      "name": "DSPFlashLoanCall",
      "outputs": [],
      "stateMutability": "nonpayable",
      "type": "function"
    },
    {
      "inputs": [
        {
          "internalType": "address",
          "name": "sender",
          "type": "address"
        },
        {
          "internalType": "uint256",
          "name": "baseAmount",
          "type": "uint256"
        },
        {
          "internalType": "uint256",
          "name": "quoteAmount",
          "type": "uint256"
        },
        {
          "internalType": "bytes",
          "name": "data",
          "type": "bytes"
        }
      ],
      "name": "DVMFlashLoanCall",
      "outputs": [],
      "stateMutability": "nonpayable",
      "type": "function"
    },
    {
      "inputs": [
        {
          "components": [
            {
              "internalType": "address",
              "name": "flashLoanPool",
              "type": "address"
            },
            {
              "internalType": "uint256",
              "name": "loanAmount",
              "type": "uint256"
            },
            {
              "components": [
                {
                  "components": [
                    {
                      "internalType": "uint8",
                      "name": "protocol",
                      "type": "uint8"
                    },
                    {
                      "internalType": "bytes",
                      "name": "data",
                      "type": "bytes"
                    },
                    {
                      "internalType": "address[]",
                      "name": "path",
                      "type": "address[]"
                    }
                  ],
                  "internalType": "struct IFlashloan.Hop[]",
                  "name": "hops",
                  "type": "tuple[]"
                },
                {
                  "internalType": "uint16",
                  "name": "part",
                  "type": "uint16"
                }
              ],
              "internalType": "struct IFlashloan.Route[]",
              "name": "routes",
              "type": "tuple[]"
            }
          ],
          "internalType": "struct IFlashloan.FlashParams",
          "name": "params",
          "type": "tuple"
        }
      ],
      "name": "dodoFlashLoan",
      "outputs": [],
      "stateMutability": "nonpayable",
      "type": "function"
    },
    {
      "inputs": [],
      "name": "owner",
      "outputs": [
        {
          "internalType": "address",
          "name": "",
          "type": "address"
        }
      ],
      "stateMutability": "view",
      "type": "function"
    },
    {
      "inputs": [],
      "name": "renounceOwnership",
      "outputs": [],
      "stateMutability": "nonpayable",
      "type": "function"
    },
    {
      "inputs": [
        {
          "internalType": "address",
          "name": "newOwner",
          "type": "address"
        }
      ],
      "name": "transferOwnership",
      "outputs": [],
      "stateMutability": "nonpayable",
      "type": "function"
    },
    {
      "inputs": [
        {
          "internalType": "contract IERC20",
          "name": "token",
          "type": "address"
        },
        {
          "internalType": "address",
          "name": "_to",
          "type": "address"
        },
        {
          "internalType": "uint256",
          "name": "_value",
          "type": "uint256"
        }
      ],
      "name": "withdrawToken",
      "outputs": [],
      "stateMutability": "nonpayable",
      "type": "function"
    }
  ],
  "bytecode": "0x608060405234801561001057600080fd5b5061001a33610023565b60018055610073565b600080546001600160a01b038381166001600160a01b0319831681178455604051919092169283917f8be0079c531659141344cd1fd0a4f28419497f9722a3daafe3b4186f6b6457e09190a35050565b612675806100826000396000f3fe608060405234801561001057600080fd5b50600436106100885760003560e01c80638da5cb5b1161005b5780638da5cb5b146100d0578063d5b99797146100bd578063eb2021c3146100bd578063f2fde38b146100f257600080fd5b806301e336671461008d5780630cdabeba146100a2578063715018a6146100b55780637ed1f1dd146100bd575b600080fd5b6100a061009b366004611b58565b610105565b005b6100a06100b0366004611bcf565b610251565b6100a06105ec565b6100a06100cb366004611a89565b610622565b6000546001600160a01b03166040516100e99190612226565b60405180910390f35b6100a06101003660046119c6565b610636565b6000546001600160a01b031633146101385760405162461bcd60e51b815260040161012f90612311565b60405180910390fd5b6002600154141561015b5760405162461bcd60e51b815260040161012f90612371565b60026001556040516370a0823160e01b815281906001600160a01b038516906370a082319061018e903090600401612226565b60206040518083038186803b1580156101a657600080fd5b505afa1580156101ba573d6000803e3d6000fd5b505050506040513d601f19601f820116820180604052508101906101de9190611c03565b10156101fc5760405162461bcd60e51b815260040161012f90612301565b610207838383610692565b816001600160a01b03167f7fcf532c15f0a6db0bd6d0e038bea71d30d808c7d98cb3bf7268a95bf5081b658260405161024091906123b1565b60405180910390a250506001805550565b806000610289826040015160008151811061027c57634e487b7160e01b600052603260045260246000fd5b60200260200101516106ed565b9050600082600001516001600160a01b0316634a248d2a6040518163ffffffff1660e01b815260040160206040518083038186803b1580156102ca57600080fd5b505afa1580156102de573d6000803e3d6000fd5b505050506040513d601f19601f8201168201806040525081019061030291906119e4565b6001600160a01b0316826001600160a01b0316149050600083600001516001600160a01b031663d4b970466040518163ffffffff1660e01b815260040160206040518083038186803b15801561035757600080fd5b505afa15801561036b573d6000803e3d6000fd5b505050506040513d601f19601f8201168201806040525081019061038f91906119e4565b6001600160a01b0316836001600160a01b031614905081806103ae5750805b6103ca5760405162461bcd60e51b815260040161012f90612351565b6040805160808101825233815286516001600160a01b03166020808301919091528781015182840152878301516060830152915160009261040c9291016123a0565b60405160208183030381529060405290506000610447876040015160008151811061027c57634e487b7160e01b600052603260045260246000fd5b905086600001516001600160a01b031663d0a494e4826001600160a01b031689600001516001600160a01b0316634a248d2a6040518163ffffffff1660e01b815260040160206040518083038186803b1580156104a357600080fd5b505afa1580156104b7573d6000803e3d6000fd5b505050506040513d601f19601f820116820180604052508101906104db91906119e4565b6001600160a01b0316146104f05760006104f6565b88602001515b836001600160a01b03168a600001516001600160a01b0316634a248d2a6040518163ffffffff1660e01b815260040160206040518083038186803b15801561053d57600080fd5b505afa158015610551573d6000803e3d6000fd5b505050506040513d601f19601f8201168201806040525081019061057591906119e4565b6001600160a01b03161461058d578960200151610590565b60005b30866040518563ffffffff1660e01b81526004016105b19493929190612412565b600060405180830381600087803b1580156105cb57600080fd5b505af11580156105df573d6000803e3d6000fd5b5050505050505050505050565b6000546001600160a01b031633146106165760405162461bcd60e51b815260040161012f90612311565b610620600061074f565b565b61062f858585858561079f565b5050505050565b6000546001600160a01b031633146106605760405162461bcd60e51b815260040161012f90612311565b6001600160a01b0381166106865760405162461bcd60e51b815260040161012f906122d1565b61068f8161074f565b50565b6106e88363a9059cbb60e01b84846040516024016106b19291906122a5565b60408051601f198184030181529190526020810180516001600160e01b03166001600160e01b031990931692909217909152610bad565b505050565b6000816000015160008151811061071457634e487b7160e01b600052603260045260246000fd5b60200260200101516040015160008151811061074057634e487b7160e01b600052603260045260246000fd5b60200260200101519050919050565b600080546001600160a01b038381166001600160a01b0319831681178455604051919092169283917f8be0079c531659141344cd1fd0a4f28419497f9722a3daafe3b4186f6b6457e09190a35050565b60006107ad82840184611b9b565b905060006107d9826060015160008151811061027c57634e487b7160e01b600052603260045260246000fd5b90508160400151816001600160a01b03166370a08231306040518263ffffffff1660e01b815260040161080c9190612226565b60206040518083038186803b15801561082457600080fd5b505afa158015610838573d6000803e3d6000fd5b505050506040513d601f19601f8201168201806040525081019061085c9190611c03565b101561087a5760405162461bcd60e51b815260040161012f906122e1565b61088c82606001518360400151610c3c565b7ffdc1bd83776f7aa310fcf2b1915ae1c6c16a4cfb48ebcea2bf15febd084c03de81826001600160a01b03166370a08231306040518263ffffffff1660e01b81526004016108da9190612226565b60206040518083038186803b1580156108f257600080fd5b505afa158015610906573d6000803e3d6000fd5b505050506040513d601f19601f8201168201806040525081019061092a9190611c03565b6040516109389291906122a5565b60405180910390a160408083015190516370a0823160e01b81526001600160a01b038316906370a0823190610971903090600401612226565b60206040518083038186803b15801561098957600080fd5b505afa15801561099d573d6000803e3d6000fd5b505050506040513d601f19601f820116820180604052508101906109c19190611c03565b10156109df5760405162461bcd60e51b815260040161012f90612321565b6020820151604080840151905163a9059cbb60e01b81526001600160a01b0384169263a9059cbb92610a13926004016122a5565b602060405180830381600087803b158015610a2d57600080fd5b505af1158015610a41573d6000803e3d6000fd5b505050506040513d601f19601f82011682018060405250810190610a659190611b3a565b506040516370a0823160e01b81526000906001600160a01b038316906370a0823190610a95903090600401612226565b60206040518083038186803b158015610aad57600080fd5b505afa158015610ac1573d6000803e3d6000fd5b505050506040513d601f19601f82011682018060405250810190610ae59190611c03565b835160405163a9059cbb60e01b81529192506001600160a01b0384169163a9059cbb91610b169185906004016122a5565b602060405180830381600087803b158015610b3057600080fd5b505af1158015610b44573d6000803e3d6000fd5b505050506040513d601f19601f82011682018060405250810190610b689190611b3a565b5082516040517f2b312ac7b7c9b2fc53c9398d48ed2df4c1d192a03cc090b47087b2936ba0a61f91610b9b9184906122a5565b60405180910390a15050505050505050565b6000610c02826040518060400160405280602081526020017f5361666545524332303a206c6f772d6c6576656c2063616c6c206661696c6564815250856001600160a01b0316610d449092919063ffffffff16565b8051909150156106e85780806020019051810190610c209190611b3a565b6106e85760405162461bcd60e51b815260040161012f90612361565b816000805b8251811015610c9557828181518110610c6a57634e487b7160e01b600052603260045260246000fd5b60200260200101516020015182610c8191906124b5565b915080610c8d81612599565b915050610c41565b508061ffff1661271014610cbb5760405162461bcd60e51b815260040161012f90612381565b60005b845181101561062f576000610cfe868381518110610cec57634e487b7160e01b600052603260045260246000fd5b60200260200101516020015186610d5d565b9050610d31868381518110610d2357634e487b7160e01b600052603260045260246000fd5b602002602001015182610d7a565b5080610d3c81612599565b915050610cbe565b6060610d538484600085610dd7565b90505b9392505050565b6000612710610d7061ffff8516846124f2565b610d5691906124de565b8060005b835151811015610dd157610dbd84600001518281518110610daf57634e487b7160e01b600052603260045260246000fd5b602002602001015183610e90565b915080610dc981612599565b915050610d7e565b50505050565b606082471015610df95760405162461bcd60e51b815260040161012f906122f1565b843b610e175760405162461bcd60e51b815260040161012f90612341565b600080866001600160a01b03168587604051610e33919061221a565b60006040518083038185875af1925050503d8060008114610e70576040519150601f19603f3d011682016040523d82523d6000602084013e610e75565b606091505b5091509150610e85828286610ef2565b979650505050505050565b815160009060ff16610eb657610eaf8360200151838560400151610f2b565b9050610eec565b6008836000015160ff161015610ed957610eaf83602001518385604001516110b2565b610d5683602001518385604001516111bb565b92915050565b60608315610f01575081610d56565b825115610f115782518084602001fd5b8160405162461bcd60e51b815260040161012f91906122c0565b600080600085806020019051810190610f449190611a4f565b915091506000829050610f8085600081518110610f7157634e487b7160e01b600052603260045260246000fd5b60200260200101518288611422565b806001600160a01b031663414bf38960405180610100016040528088600081518110610fbc57634e487b7160e01b600052603260045260246000fd5b60200260200101516001600160a01b0316815260200188600181518110610ff357634e487b7160e01b600052603260045260246000fd5b60200260200101516001600160a01b031681526020018562ffffff168152602001306001600160a01b031681526020014281526020018981526020016000815260200160006001600160a01b03168152506040518263ffffffff1660e01b81526004016110609190612391565b602060405180830381600087803b15801561107a57600080fd5b505af115801561108e573d6000803e3d6000fd5b505050506040513d601f19601f82011682018060405250810190610e859190611c03565b600080848060200190518101906110c991906119e4565b90506110fe836000815181106110ef57634e487b7160e01b600052603260045260246000fd5b60200260200101518286611422565b6040516338ed173960e01b81526001600160a01b038216906338ed1739906111339087906001908890309042906004016123bf565b600060405180830381600087803b15801561114d57600080fd5b505af1158015611161573d6000803e3d6000fd5b505050506040513d6000823e601f3d908101601f191682016040526111899190810190611b06565b6001815181106111a957634e487b7160e01b600052603260045260246000fd5b60200260200101519150509392505050565b600080600080868060200190518101906111d59190611a02565b60408051600180825281830190925293965091945092506000919060208083019080368337019050509050838160008151811061122257634e487b7160e01b600052603260045260246000fd5b60200260200101906001600160a01b031690816001600160a01b03168152505060008660008151811061126557634e487b7160e01b600052603260045260246000fd5b60200260200101516001600160a01b0316856001600160a01b0316634a248d2a6040518163ffffffff1660e01b815260040160206040518083038186803b1580156112af57600080fd5b505afa1580156112c3573d6000803e3d6000fd5b505050506040513d601f19601f820116820180604052508101906112e791906119e4565b6001600160a01b0316146112fc5760016112ff565b60005b60ff1690506113378760008151811061132857634e487b7160e01b600052603260045260246000fd5b6020026020010151858a611422565b826001600160a01b031663f87dc1b78860008151811061136757634e487b7160e01b600052603260045260246000fd5b60200260200101518960018151811061139057634e487b7160e01b600052603260045260246000fd5b60200260200101518b600187876000426040518963ffffffff1660e01b81526004016113c3989796959493929190612234565b602060405180830381600087803b1580156113dd57600080fd5b505af11580156113f1573d6000803e3d6000fd5b505050506040513d601f19601f820116820180604052508101906114159190611c03565b9998505050505050505050565b60405163095ea7b360e01b81526001600160a01b0384169063095ea7b39061145090859085906004016122a5565b602060405180830381600087803b15801561146a57600080fd5b505af115801561147e573d6000803e3d6000fd5b505050506040513d601f19601f820116820180604052508101906114a29190611b3a565b6106e85760405162461bcd60e51b815260040161012f90612331565b60006114d16114cc84612468565b61244c565b905080838252602082019050828560208602820111156114f057600080fd5b60005b8581101561151c5781611506888261169c565b84525060209283019291909101906001016114f3565b5050509392505050565b60006115346114cc84612468565b9050808382526020820190508285602086028201111561155357600080fd5b60005b8581101561151c5781356001600160401b0381111561157457600080fd5b80860161158189826118b5565b855250506020928301929190910190600101611556565b60006115a66114cc84612468565b905080838252602082019050828560208602820111156115c557600080fd5b60005b8581101561151c5781356001600160401b038111156115e657600080fd5b8086016115f38982611932565b8552505060209283019291909101906001016115c8565b60006116186114cc84612468565b9050808382526020820190508285602086028201111561163757600080fd5b60005b8581101561151c578161164d88826119b0565b845250602092830192919091019060010161163a565b60006116716114cc8461248b565b90508281526020810184848401111561168957600080fd5b611694848285612535565b509392505050565b8035610eec816125f6565b8051610eec816125f6565b600082601f8301126116c357600080fd5b81356116d38482602086016114be565b949350505050565b600082601f8301126116ec57600080fd5b81356116d3848260208601611526565b600082601f83011261170d57600080fd5b81356116d3848260208601611598565b600082601f83011261172e57600080fd5b81516116d384826020860161160a565b8051610eec8161260a565b60008083601f84011261175b57600080fd5b5081356001600160401b0381111561177257600080fd5b60208301915083600182028301111561178a57600080fd5b9250929050565b600082601f8301126117a257600080fd5b81356116d3848260208601611663565b8035610eec81612612565b6000608082840312156117cf57600080fd5b6117d9608061244c565b905060006117e7848461169c565b82525060206117f88484830161169c565b602083015250604061180c848285016119a5565b60408301525060608201356001600160401b0381111561182b57600080fd5b611837848285016116fc565b60608301525092915050565b60006060828403121561185557600080fd5b61185f606061244c565b9050600061186d848461169c565b825250602061187e848483016119a5565b60208301525060408201356001600160401b0381111561189d57600080fd5b6118a9848285016116fc565b60408301525092915050565b6000606082840312156118c757600080fd5b6118d1606061244c565b905060006118df84846119bb565b82525060208201356001600160401b038111156118fb57600080fd5b61190784828501611791565b60208301525060408201356001600160401b0381111561192657600080fd5b6118a9848285016116b2565b60006040828403121561194457600080fd5b61194e604061244c565b905081356001600160401b0381111561196657600080fd5b611972848285016116db565b82525060206119838484830161198f565b60208301525092915050565b8035610eec8161261b565b8051610eec81612625565b8035610eec81612630565b8051610eec81612630565b8035610eec81612636565b6000602082840312156119d857600080fd5b60006116d3848461169c565b6000602082840312156119f657600080fd5b60006116d384846116a7565b600080600060608486031215611a1757600080fd5b6000611a2386866116a7565b9350506020611a34868287016116a7565b9250506040611a45868287016116a7565b9150509250925092565b60008060408385031215611a6257600080fd5b6000611a6e85856116a7565b9250506020611a7f8582860161199a565b9150509250929050565b600080600080600060808688031215611aa157600080fd5b6000611aad888861169c565b9550506020611abe888289016119a5565b9450506040611acf888289016119a5565b93505060608601356001600160401b03811115611aeb57600080fd5b611af788828901611749565b92509250509295509295909350565b600060208284031215611b1857600080fd5b81516001600160401b03811115611b2e57600080fd5b6116d38482850161171d565b600060208284031215611b4c57600080fd5b60006116d3848461173e565b600080600060608486031215611b6d57600080fd5b6000611b7986866117b2565b9350506020611b8a8682870161169c565b9250506040611a45868287016119a5565b600060208284031215611bad57600080fd5b81356001600160401b03811115611bc357600080fd5b6116d3848285016117bd565b600060208284031215611be157600080fd5b81356001600160401b03811115611bf757600080fd5b6116d384828501611843565b600060208284031215611c1557600080fd5b60006116d384846119b0565b6000611c2d8383611c4d565b505060200190565b6000610d568383612174565b6000610d5683836121ba565b611c5681612511565b82525050565b6000611c66825190565b80845260209384019383018060005b83811015611c9a578151611c898882611c21565b975060208301925050600101611c75565b509495945050505050565b6000611caf825190565b80845260209384019383018060005b83811015611c9a578151611cd28882611c21565b975060208301925050600101611cbe565b6000611ced825190565b80845260208401935083602082028501611d078560200190565b8060005b85811015611d3c5784840389528151611d248582611c35565b94506020830160209a909a0199925050600101611d0b565b5091979650505050505050565b6000611d53825190565b80845260208401935083602082028501611d6d8560200190565b8060005b85811015611d3c5784840389528151611d8a8582611c41565b94506020830160209a909a0199925050600101611d71565b801515611c56565b6000611db4825190565b808452602084019350611dcb818560208601612541565b601f01601f19169290920192915050565b6000611de6825190565b611df4818560208601612541565b9290920192915050565b611c568161252d565b602681526000602082017f4f776e61626c653a206e6577206f776e657220697320746865207a65726f206181526564647265737360d01b602082015291505b5060400190565b601b81526000602082017f4661696c656420746f20626f72726f77206c6f616e20746f6b656e0000000000815291505b5060200190565b602681526000602082017f416464726573733a20696e73756666696369656e742062616c616e636520666f8152651c8818d85b1b60d21b60208201529150611e46565b601081526000602082016f2737ba1032b737bab3b4103a37b5b2b760811b81529150611e7d565b60208082527f4f776e61626c653a2063616c6c6572206973206e6f7420746865206f776e657291019081526000611e7d565b60208082527f4e6f7420656e6f75676820616d6f756e7420746f2072657475726e206c6f616e91019081526000611e7d565b600f81526000602082016e30b8383937bb32903330b4b632b21760891b81529150611e7d565b601d81526000602082017f416464726573733a2063616c6c20746f206e6f6e2d636f6e747261637400000081529150611e7d565b601c81526000602082017f57726f6e6720666c6173686c6f616e20706f6f6c20616464726573730000000081529150611e7d565b602a81526000602082017f5361666545524332303a204552433230206f7065726174696f6e20646964206e8152691bdd081cdd58d8d9595960b21b60208201529150611e46565b601f81526000602082017f5265656e7472616e637947756172643a207265656e7472616e742063616c6c0081529150611e7d565b601081526000602082016f2937baba32903830b93a1032b93937b960811b81529150611e7d565b80516101008301906120948482611c4d565b5060208201516120a76020850182611c4d565b5060408201516120ba6040850182612200565b5060608201516120cd6060850182611c4d565b5060808201516120e0608085018261220b565b5060a08201516120f360a085018261220b565b5060c082015161210660c085018261220b565b5060e0820151610dd160e08501826121e7565b8051600090608084019061212d8582611c4d565b5060208301516121406020860182611c4d565b506040830151612153604086018261220b565b506060830151848203606086015261216b8282611d49565b95945050505050565b805160009060608401906121888582612211565b50602083015184820360208601526121a08282611daa565b9150506040830151848203604086015261216b8282611c5c565b80516040808452600091908401906121d28282611ce3565b915050602083015161169460208601826121f6565b6001600160a01b038116611c56565b61ffff8116611c56565b62ffffff8116611c56565b80611c56565b60ff8116611c56565b6000610d568284611ddc565b60208101610eec8284611c4d565b6101008101612243828b611c4d565b612250602083018a611c4d565b61225d604083018961220b565b61226a6060830188611dfe565b818103608083015261227c8187611ca5565b905061228b60a083018661220b565b61229860c0830185611da2565b61141560e083018461220b565b604081016122b38285611c4d565b610d56602083018461220b565b60208082528101610d568184611daa565b60208082528101610eec81611e07565b60208082528101610eec81611e4d565b60208082528101610eec81611e84565b60208082528101610eec81611ec7565b60208082528101610eec81611eee565b60208082528101610eec81611f20565b60208082528101610eec81611f52565b60208082528101610eec81611f78565b60208082528101610eec81611fac565b60208082528101610eec81611fe0565b60208082528101610eec81612027565b60208082528101610eec8161205b565b6101008101610eec8284612082565b60208082528101610d568184612119565b60208101610eec828461220b565b60a081016123cd828861220b565b6123da6020830187611dfe565b81810360408301526123ec8186611ca5565b90506123fb6060830185611c4d565b612408608083018461220b565b9695505050505050565b60808101612420828761220b565b61242d602083018661220b565b61243a6040830185611c4d565b81810360608301526124088184611daa565b600061245760405190565b9050612463828261256d565b919050565b60006001600160401b03821115612481576124816125e0565b5060209081020190565b60006001600160401b038211156124a4576124a46125e0565b601f19601f83011660200192915050565b600061ffff8216915061ffff831692508261ffff038211156124d9576124d96125b4565b500190565b6000826124ed576124ed6125ca565b500490565b600081600019048311821515161561250c5761250c6125b4565b500290565b60006001600160a01b038216610eec565b6000610eec82612511565b600081610eec565b82818337506000910152565b60005b8381101561255c578181015183820152602001612544565b83811115610dd15750506000910152565b601f19601f83011681018181106001600160401b0382111715612592576125926125e0565b6040525050565b60006000198214156125ad576125ad6125b4565b5060010190565b634e487b7160e01b600052601160045260246000fd5b634e487b7160e01b600052601260045260246000fd5b634e487b7160e01b600052604160045260246000fd5b6125ff81612511565b811461068f57600080fd5b8015156125ff565b6125ff81612522565b61ffff81166125ff565b62ffffff81166125ff565b806125ff565b60ff81166125ff56fea2646970667358221220577209bda4157801a0372afaec48a9d34326d893455d840430ab6e99e7386af964736f6c63430008040033",
  "linkReferences": {},
  "deployedLinkReferences": {}
}