{
  "_format": "hh-sol-artifact-1",
  "contractName": "Flashloan",
  "sourceName": "contracts/Flashloan.sol",
  "abi": [
    {
      "inputs": [
        {
          "internalType": "address",
          "name": "_router",
          "type": "address"
        }
      ],
      "stateMutability": "nonpayable",
      "type": "constructor"
    },
    {
      "anonymous": false,
      "inputs": [
        {
          "indexed": true,
          "internalType": "address",
          "name": "previousOwner",
          "type": "address"
        },
        {
          "indexed": true,
          "internalType": "address",
          "name": "newOwner",
          "type": "address"
        }
      ],
      "name": "OwnershipTransferred",
      "type": "event"
    },
    {
      "anonymous": false,
      "inputs": [
        {
          "indexed": false,
          "internalType": "address",
          "name": "recipient",
          "type": "address"
        },
        {
          "indexed": false,
          "internalType": "uint256",
          "name": "profit",
          "type": "uint256"
        }
      ],
      "name": "SentProfit",
      "type": "event"
    },
    {
      "anonymous": false,
      "inputs": [
        {
          "indexed": false,
          "internalType": "address",
          "name": "token",
          "type": "address"
        },
        {
          "indexed": false,
          "internalType": "uint256",
          "name": "amount",
          "type": "uint256"
        }
      ],
      "name": "SwapFinished",
      "type": "event"
    },
    {
      "anonymous": false,
      "inputs": [
        {
          "indexed": true,
          "internalType": "address",
          "name": "sender",
          "type": "address"
        },
        {
          "indexed": false,
          "internalType": "uint256",
          "name": "amount",
          "type": "uint256"
        }
      ],
      "name": "Withdrawal",
      "type": "event"
    },
    {
      "inputs": [
        {
          "internalType": "address",
          "name": "sender",
          "type": "address"
        },
        {
          "internalType": "uint256",
          "name": "baseAmount",
          "type": "uint256"
        },
        {
          "internalType": "uint256",
          "name": "quoteAmount",
          "type": "uint256"
        },
        {
          "internalType": "bytes",
          "name": "data",
          "type": "bytes"
        }
      ],
      "name": "DPPFlashLoanCall",
      "outputs": [],
      "stateMutability": "nonpayable",
      "type": "function"
    },
    {
      "inputs": [
        {
          "internalType": "address",
          "name": "sender",
          "type": "address"
        },
        {
          "internalType": "uint256",
          "name": "baseAmount",
          "type": "uint256"
        },
        {
          "internalType": "uint256",
          "name": "quoteAmount",
          "type": "uint256"
        },
        {
          "internalType": "bytes",
          "name": "data",
          "type": "bytes"
        }
      ],
      "name": "DSPFlashLoanCall",
      "outputs": [],
      "stateMutability": "nonpayable",
      "type": "function"
    },
    {
      "inputs": [
        {
          "internalType": "address",
          "name": "sender",
          "type": "address"
        },
        {
          "internalType": "uint256",
          "name": "baseAmount",
          "type": "uint256"
        },
        {
          "internalType": "uint256",
          "name": "quoteAmount",
          "type": "uint256"
        },
        {
          "internalType": "bytes",
          "name": "data",
          "type": "bytes"
        }
      ],
      "name": "DVMFlashLoanCall",
      "outputs": [],
      "stateMutability": "nonpayable",
      "type": "function"
    },
    {
      "inputs": [
        {
          "components": [
            {
              "internalType": "address",
              "name": "flashLoanPool",
              "type": "address"
            },
            {
              "internalType": "uint256",
              "name": "loanAmount",
              "type": "uint256"
            },
            {
              "components": [
                {
                  "components": [
                    {
                      "components": [
                        {
                          "internalType": "uint8",
                          "name": "protocol",
                          "type": "uint8"
                        },
                        {
                          "internalType": "uint16",
                          "name": "part",
                          "type": "uint16"
                        }
                      ],
                      "internalType": "struct IFlashloan.Swap[]",
                      "name": "swaps",
                      "type": "tuple[]"
                    },
                    {
                      "internalType": "address[]",
                      "name": "path",
                      "type": "address[]"
                    }
                  ],
                  "internalType": "struct IFlashloan.Hop[]",
                  "name": "hops",
                  "type": "tuple[]"
                },
                {
                  "internalType": "uint16",
                  "name": "part",
                  "type": "uint16"
                }
              ],
              "internalType": "struct IFlashloan.Route[]",
              "name": "firstRoutes",
              "type": "tuple[]"
            },
            {
              "components": [
                {
                  "components": [
                    {
                      "components": [
                        {
                          "internalType": "uint8",
                          "name": "protocol",
                          "type": "uint8"
                        },
                        {
                          "internalType": "uint16",
                          "name": "part",
                          "type": "uint16"
                        }
                      ],
                      "internalType": "struct IFlashloan.Swap[]",
                      "name": "swaps",
                      "type": "tuple[]"
                    },
                    {
                      "internalType": "address[]",
                      "name": "path",
                      "type": "address[]"
                    }
                  ],
                  "internalType": "struct IFlashloan.Hop[]",
                  "name": "hops",
                  "type": "tuple[]"
                },
                {
                  "internalType": "uint16",
                  "name": "part",
                  "type": "uint16"
                }
              ],
              "internalType": "struct IFlashloan.Route[]",
              "name": "secondRoutes",
              "type": "tuple[]"
            }
          ],
          "internalType": "struct IFlashloan.FlashParams",
          "name": "params",
          "type": "tuple"
        }
      ],
      "name": "dodoFlashLoan",
      "outputs": [],
      "stateMutability": "nonpayable",
      "type": "function"
    },
    {
      "inputs": [],
      "name": "owner",
      "outputs": [
        {
          "internalType": "address",
          "name": "",
          "type": "address"
        }
      ],
      "stateMutability": "view",
      "type": "function"
    },
    {
      "inputs": [],
      "name": "renounceOwnership",
      "outputs": [],
      "stateMutability": "nonpayable",
      "type": "function"
    },
    {
      "inputs": [
        {
          "internalType": "address",
          "name": "newOwner",
          "type": "address"
        }
      ],
      "name": "transferOwnership",
      "outputs": [],
      "stateMutability": "nonpayable",
      "type": "function"
    },
    {
      "inputs": [
        {
          "internalType": "contract IERC20",
          "name": "token",
          "type": "address"
        },
        {
          "internalType": "address",
          "name": "_to",
          "type": "address"
        },
        {
          "internalType": "uint256",
          "name": "_value",
          "type": "uint256"
        }
      ],
      "name": "withdrawToken",
      "outputs": [],
      "stateMutability": "nonpayable",
      "type": "function"
    }
  ],
  "bytecode": "0x60806040523480156200001157600080fd5b506040516200285e3803806200285e8339810160408190526200003491620000cc565b6200003f3362000069565b60018055600280546001600160a01b0319166001600160a01b039290921691909117905562000121565b600080546001600160a01b038381166001600160a01b0319831681178455604051919092169283917f8be0079c531659141344cd1fd0a4f28419497f9722a3daafe3b4186f6b6457e09190a35050565b8051620000c68162000107565b92915050565b600060208284031215620000df57600080fd5b6000620000ed8484620000b9565b949350505050565b60006001600160a01b038216620000c6565b6200011281620000f5565b81146200011e57600080fd5b50565b61272d80620001316000396000f3fe608060405234801561001057600080fd5b50600436106100885760003560e01c8063a1fd1a081161005b578063a1fd1a08146100df578063d5b99797146100aa578063eb2021c3146100aa578063f2fde38b146100f257600080fd5b806301e336671461008d578063715018a6146100a25780637ed1f1dd146100aa5780638da5cb5b146100bd575b600080fd5b6100a061009b366004611be1565b610105565b005b6100a06101b5565b6100a06100b8366004611b12565b6101eb565b6000546001600160a01b03166040516100d69190612349565b60405180910390f35b6100a06100ed366004611c62565b6101ff565b6100a0610100366004611ad6565b6105b3565b6000546001600160a01b031633146101385760405162461bcd60e51b815260040161012f906123ce565b60405180910390fd5b6002600154141561015b5760405162461bcd60e51b815260040161012f9061243e565b600260015561016b83838361060f565b816001600160a01b03167f7fcf532c15f0a6db0bd6d0e038bea71d30d808c7d98cb3bf7268a95bf5081b65826040516101a4919061247e565b60405180910390a250506001805550565b6000546001600160a01b031633146101df5760405162461bcd60e51b815260040161012f906123ce565b6101e9600061066a565b565b6101f885858585856106ba565b5050505050565b806000610237826040015160008151811061022a57634e487b7160e01b600052603260045260246000fd5b6020026020010151610b85565b9050600082600001516001600160a01b0316634a248d2a6040518163ffffffff1660e01b815260040160206040518083038186803b15801561027857600080fd5b505afa15801561028c573d6000803e3d6000fd5b505050506040513d601f19601f820116820180604052508101906102b09190611af4565b6001600160a01b0316826001600160a01b0316149050600083600001516001600160a01b031663d4b970466040518163ffffffff1660e01b815260040160206040518083038186803b15801561030557600080fd5b505afa158015610319573d6000803e3d6000fd5b505050506040513d601f19601f8201168201806040525081019061033d9190611af4565b6001600160a01b0316836001600160a01b0316149050818061035c5750805b6103785760405162461bcd60e51b815260040161012f9061241e565b60006040518060a00160405280336001600160a01b0316815260200187600001516001600160a01b03168152602001876020015181526020018760400151815260200187606001518152506040516020016103d3919061246d565b6040516020818303038152906040529050600061040e876040015160008151811061022a57634e487b7160e01b600052603260045260246000fd5b905086600001516001600160a01b031663d0a494e4826001600160a01b031689600001516001600160a01b0316634a248d2a6040518163ffffffff1660e01b815260040160206040518083038186803b15801561046a57600080fd5b505afa15801561047e573d6000803e3d6000fd5b505050506040513d601f19601f820116820180604052508101906104a29190611af4565b6001600160a01b0316146104b75760006104bd565b88602001515b836001600160a01b03168a600001516001600160a01b0316634a248d2a6040518163ffffffff1660e01b815260040160206040518083038186803b15801561050457600080fd5b505afa158015610518573d6000803e3d6000fd5b505050506040513d601f19601f8201168201806040525081019061053c9190611af4565b6001600160a01b031614610554578960200151610557565b60005b30866040518563ffffffff1660e01b815260040161057894939291906124df565b600060405180830381600087803b15801561059257600080fd5b505af11580156105a6573d6000803e3d6000fd5b5050505050505050505050565b6000546001600160a01b031633146105dd5760405162461bcd60e51b815260040161012f906123ce565b6001600160a01b0381166106035760405162461bcd60e51b815260040161012f9061239e565b61060c8161066a565b50565b6106658363a9059cbb60e01b848460405160240161062e929190612372565b60408051601f198184030181529190526020810180516001600160e01b03166001600160e01b031990931692909217909152610be7565b505050565b600080546001600160a01b038381166001600160a01b0319831681178455604051919092169283917f8be0079c531659141344cd1fd0a4f28419497f9722a3daafe3b4186f6b6457e09190a35050565b60006106c882840184611c2e565b905060006106f4826060015160008151811061022a57634e487b7160e01b600052603260045260246000fd5b90506000610720836080015160008151811061022a57634e487b7160e01b600052603260045260246000fd5b90508260400151826001600160a01b03166370a08231306040518263ffffffff1660e01b81526004016107539190612349565b60206040518083038186803b15801561076b57600080fd5b505afa15801561077f573d6000803e3d6000fd5b505050506040513d601f19601f820116820180604052508101906107a39190611cb4565b10156107c15760405162461bcd60e51b815260040161012f906123ae565b6107d383606001518460400151610c76565b6040516370a0823160e01b81526000906001600160a01b038316906370a0823190610802903090600401612349565b60206040518083038186803b15801561081a57600080fd5b505afa15801561082e573d6000803e3d6000fd5b505050506040513d601f19601f820116820180604052508101906108529190611cb4565b9050610862846080015182610c76565b7ffdc1bd83776f7aa310fcf2b1915ae1c6c16a4cfb48ebcea2bf15febd084c03de83846001600160a01b03166370a08231306040518263ffffffff1660e01b81526004016108b09190612349565b60206040518083038186803b1580156108c857600080fd5b505afa1580156108dc573d6000803e3d6000fd5b505050506040513d601f19601f820116820180604052508101906109009190611cb4565b60405161090e929190612372565b60405180910390a160408085015190516370a0823160e01b81526001600160a01b038516906370a0823190610947903090600401612349565b60206040518083038186803b15801561095f57600080fd5b505afa158015610973573d6000803e3d6000fd5b505050506040513d601f19601f820116820180604052508101906109979190611cb4565b10156109b55760405162461bcd60e51b815260040161012f906123ee565b6020840151604080860151905163a9059cbb60e01b81526001600160a01b0386169263a9059cbb926109e992600401612372565b602060405180830381600087803b158015610a0357600080fd5b505af1158015610a17573d6000803e3d6000fd5b505050506040513d601f19601f82011682018060405250810190610a3b9190611bc3565b506040516370a0823160e01b81526000906001600160a01b038516906370a0823190610a6b903090600401612349565b60206040518083038186803b158015610a8357600080fd5b505afa158015610a97573d6000803e3d6000fd5b505050506040513d601f19601f82011682018060405250810190610abb9190611cb4565b855160405163a9059cbb60e01b81529192506001600160a01b0386169163a9059cbb91610aec918590600401612372565b602060405180830381600087803b158015610b0657600080fd5b505af1158015610b1a573d6000803e3d6000fd5b505050506040513d601f19601f82011682018060405250810190610b3e9190611bc3565b5084516040517f2b312ac7b7c9b2fc53c9398d48ed2df4c1d192a03cc090b47087b2936ba0a61f91610b71918490612372565b60405180910390a150505050505050505050565b60008160000151600081518110610bac57634e487b7160e01b600052603260045260246000fd5b602002602001015160200151600081518110610bd857634e487b7160e01b600052603260045260246000fd5b60200260200101519050919050565b6000610c3c826040518060400160405280602081526020017f5361666545524332303a206c6f772d6c6576656c2063616c6c206661696c6564815250856001600160a01b0316610d7e9092919063ffffffff16565b8051909150156106655780806020019051810190610c5a9190611bc3565b6106655760405162461bcd60e51b815260040161012f9061242e565b816000805b8251811015610ccf57828181518110610ca457634e487b7160e01b600052603260045260246000fd5b60200260200101516020015182610cbb9190612566565b915080610cc781612651565b915050610c7b565b508061ffff1661271014610cf55760405162461bcd60e51b815260040161012f9061244e565b60005b84518110156101f8576000610d38868381518110610d2657634e487b7160e01b600052603260045260246000fd5b60200260200101516020015186610d97565b9050610d6b868381518110610d5d57634e487b7160e01b600052603260045260246000fd5b602002602001015182610db4565b5080610d7681612651565b915050610cf8565b6060610d8d8484600085610e11565b90505b9392505050565b6000612710610daa61ffff8516846125b6565b610d9091906125a2565b8060005b835151811015610e0b57610df784600001518281518110610de957634e487b7160e01b600052603260045260246000fd5b602002602001015183610eca565b915080610e0381612651565b915050610db8565b50505050565b606082471015610e335760405162461bcd60e51b815260040161012f906123be565b843b610e515760405162461bcd60e51b815260040161012f9061240e565b600080866001600160a01b03168587604051610e6d919061233d565b60006040518083038185875af1925050503d8060008114610eaa576040519150601f19603f3d011682016040523d82523d6000602084013e610eaf565b606091505b5091509150610ebf828286610ffb565b979650505050505050565b815160009081805b8251811015610f2657828181518110610efb57634e487b7160e01b600052603260045260246000fd5b60200260200101516020015182610f129190612566565b915080610f1e81612651565b915050610ed2565b508061ffff1661271014610f4c5760405162461bcd60e51b815260040161012f906123de565b6000805b865151811015610ff1576000610f9588600001518381518110610f8357634e487b7160e01b600052603260045260246000fd5b60200260200101516020015188610d97565b9050610fd188600001518381518110610fbe57634e487b7160e01b600052603260045260246000fd5b6020026020010151896020015183611034565b610fdb908461258f565b9250508080610fe990612651565b915050610f50565b5095945050505050565b6060831561100a575081610d90565b82511561101a5782518084602001fd5b8160405162461bcd60e51b815260040161012f919061238d565b825160009060ff166110525761104b84848461108c565b9050610d90565b61105d848484611353565b60018151811061107d57634e487b7160e01b600052603260045260246000fd5b60200260200101519050610d90565b600254835160405163cac73ed760e01b815260009283926001600160a01b039091169163cac73ed7916110c191600401612519565b60206040518083038186803b1580156110d957600080fd5b505afa1580156110ed573d6000803e3d6000fd5b505050506040513d601f19601f820116820180604052508101906111119190611af4565b9050600081905061114b8560008151811061113c57634e487b7160e01b600052603260045260246000fd5b602002602001015182866114a2565b60025485516000916001600160a01b03169063fee99898908890849061118157634e487b7160e01b600052603260045260246000fd5b6020026020010151886001815181106111aa57634e487b7160e01b600052603260045260246000fd5b60200260200101516040518363ffffffff1660e01b81526004016111cf929190612357565b60206040518083038186803b1580156111e757600080fd5b505afa1580156111fb573d6000803e3d6000fd5b505050506040513d601f19601f8201168201806040525081019061121f9190611c96565b9050816001600160a01b031663414bf3896040518061010001604052808960008151811061125d57634e487b7160e01b600052603260045260246000fd5b60200260200101516001600160a01b031681526020018960018151811061129457634e487b7160e01b600052603260045260246000fd5b60200260200101516001600160a01b031681526020018462ffffff168152602001306001600160a01b031681526020014281526020018881526020016000815260200160006001600160a01b03168152506040518263ffffffff1660e01b8152600401611301919061245e565b602060405180830381600087803b15801561131b57600080fd5b505af115801561132f573d6000803e3d6000fd5b505050506040513d601f19601f82011682018060405250810190610ebf9190611cb4565b600254835160405163cac73ed760e01b81526060926000926001600160a01b039091169163cac73ed79161138991600401612519565b60206040518083038186803b1580156113a157600080fd5b505afa1580156113b5573d6000803e3d6000fd5b505050506040513d601f19601f820116820180604052508101906113d99190611af4565b905061140e846000815181106113ff57634e487b7160e01b600052603260045260246000fd5b602002602001015182856114a2565b6040516338ed173960e01b81526001600160a01b038216906338ed17399061144390869060019089903090429060040161248c565b600060405180830381600087803b15801561145d57600080fd5b505af1158015611471573d6000803e3d6000fd5b505050506040513d6000823e601f3d908101601f191682016040526114999190810190611b8f565b95945050505050565b60405163095ea7b360e01b81526001600160a01b0384169063095ea7b3906114d09085908590600401612372565b602060405180830381600087803b1580156114ea57600080fd5b505af11580156114fe573d6000803e3d6000fd5b505050506040513d601f19601f820116820180604052508101906115229190611bc3565b6106655760405162461bcd60e51b815260040161012f906123fe565b600061155161154c84612543565b612527565b9050808382526020820190508285602086028201111561157057600080fd5b60005b8581101561159c5781611586888261173b565b8452506020928301929190910190600101611573565b5050509392505050565b60006115b461154c84612543565b905080838252602082019050828560208602820111156115d357600080fd5b60005b8581101561159c5781356001600160401b038111156115f457600080fd5b80860161160189826119b0565b8552505060209283019291909101906001016115d6565b600061162661154c84612543565b9050808382526020820190508285602086028201111561164557600080fd5b60005b8581101561159c5781356001600160401b0381111561166657600080fd5b8086016116738982611a24565b855250506020928301929190910190600101611648565b600061169861154c84612543565b838152905060208101826040850281018610156116b457600080fd5b60005b8581101561159c57816116ca8882611a75565b845250602090920191604091909101906001016116b7565b60006116f061154c84612543565b9050808382526020820190508285602086028201111561170f57600080fd5b60005b8581101561159c57816117258882611ac0565b8452506020928301929190910190600101611712565b8035611746816126ae565b92915050565b8051611746816126ae565b600082601f83011261176857600080fd5b813561177884826020860161153e565b949350505050565b600082601f83011261179157600080fd5b81356117788482602086016115a6565b600082601f8301126117b257600080fd5b8135611778848260208601611618565b600082601f8301126117d357600080fd5b813561177884826020860161168a565b600082601f8301126117f457600080fd5b81516117788482602086016116e2565b8051611746816126c2565b60008083601f84011261182157600080fd5b5081356001600160401b0381111561183857600080fd5b60208301915083600182028301111561185057600080fd5b9250929050565b8035611746816126ca565b600060a0828403121561187457600080fd5b61187e60a0612527565b9050600061188c848461173b565b825250602061189d8484830161173b565b60208301525060406118b184828501611ab5565b60408301525060608201356001600160401b038111156118d057600080fd5b6118dc848285016117a1565b60608301525060808201356001600160401b038111156118fb57600080fd5b611907848285016117a1565b60808301525092915050565b60006080828403121561192557600080fd5b61192f6080612527565b9050600061193d848461173b565b825250602061194e84848301611ab5565b60208301525060408201356001600160401b0381111561196d57600080fd5b611979848285016117a1565b60408301525060608201356001600160401b0381111561199857600080fd5b6119a4848285016117a1565b60608301525092915050565b6000604082840312156119c257600080fd5b6119cc6040612527565b905081356001600160401b038111156119e457600080fd5b6119f0848285016117c2565b82525060208201356001600160401b03811115611a0c57600080fd5b611a1884828501611757565b60208301525092915050565b600060408284031215611a3657600080fd5b611a406040612527565b905081356001600160401b03811115611a5857600080fd5b611a6484828501611780565b8252506020611a1884848301611a9f565b600060408284031215611a8757600080fd5b611a916040612527565b90506000611a648484611acb565b8035611746816126d3565b8051611746816126dd565b8035611746816126e8565b8051611746816126e8565b8035611746816126ee565b600060208284031215611ae857600080fd5b6000611778848461173b565b600060208284031215611b0657600080fd5b6000611778848461174c565b600080600080600060808688031215611b2a57600080fd5b6000611b36888861173b565b9550506020611b4788828901611ab5565b9450506040611b5888828901611ab5565b93505060608601356001600160401b03811115611b7457600080fd5b611b808882890161180f565b92509250509295509295909350565b600060208284031215611ba157600080fd5b81516001600160401b03811115611bb757600080fd5b611778848285016117e3565b600060208284031215611bd557600080fd5b60006117788484611804565b600080600060608486031215611bf657600080fd5b6000611c028686611857565b9350506020611c138682870161173b565b9250506040611c2486828701611ab5565b9150509250925092565b600060208284031215611c4057600080fd5b81356001600160401b03811115611c5657600080fd5b61177884828501611862565b600060208284031215611c7457600080fd5b81356001600160401b03811115611c8a57600080fd5b61177884828501611913565b600060208284031215611ca857600080fd5b60006117788484611aaa565b600060208284031215611cc657600080fd5b60006117788484611ac0565b6000611cde8383611d12565b505060200190565b6000610d90838361227f565b6000610d9083836122b1565b6000611d0a83836122e6565b505060400190565b611d1b816125d5565b82525050565b6000611d2b825190565b80845260209384019383018060005b83811015611d5f578151611d4e8882611cd2565b975060208301925050600101611d3a565b509495945050505050565b6000611d74825190565b80845260209384019383018060005b83811015611d5f578151611d978882611cd2565b975060208301925050600101611d83565b6000611db2825190565b80845260208401935083602082028501611dcc8560200190565b8060005b85811015611e015784840389528151611de98582611ce6565b94506020830160209a909a0199925050600101611dd0565b5091979650505050505050565b6000611e18825190565b80845260208401935083602082028501611e328560200190565b8060005b85811015611e015784840389528151611e4f8582611cf2565b94506020830160209a909a0199925050600101611e36565b6000611e71825190565b80845260209384019383018060005b83811015611d5f578151611e948882611cfe565b975060208301925050600101611e80565b6000611eaf825190565b808452602084019350611ec68185602086016125f9565b601f01601f19169290920192915050565b6000611ee1825190565b611eef8185602086016125f9565b9290920192915050565b611d1b816125f1565b602681526000602082017f4f776e61626c653a206e6577206f776e657220697320746865207a65726f206181526564647265737360d01b602082015291505b5060400190565b601b81526000602082017f4661696c656420746f20626f72726f77206c6f616e20746f6b656e0000000000815291505b5060200190565b602681526000602082017f416464726573733a20696e73756666696369656e742062616c616e636520666f8152651c8818d85b1b60d21b60208201529150611f41565b60208082527f4f776e61626c653a2063616c6c6572206973206e6f7420746865206f776e657291019081526000611f78565b600f81526000602082016e29bbb0b8103830b93a1032b93937b960891b81529150611f78565b60208082527f4e6f7420656e6f75676820616d6f756e7420746f2072657475726e206c6f616e91019081526000611f78565b600f81526000602082016e30b8383937bb32903330b4b632b21760891b81529150611f78565b601d81526000602082017f416464726573733a2063616c6c20746f206e6f6e2d636f6e747261637400000081529150611f78565b601c81526000602082017f57726f6e6720666c6173686c6f616e20706f6f6c20616464726573730000000081529150611f78565b602a81526000602082017f5361666545524332303a204552433230206f7065726174696f6e20646964206e8152691bdd081cdd58d8d9595960b21b60208201529150611f41565b601f81526000602082017f5265656e7472616e637947756172643a207265656e7472616e742063616c6c0081529150611f78565b601081526000602082016f2937baba32903830b93a1032b93937b960811b81529150611f78565b805161010083019061218e8482611d12565b5060208201516121a16020850182611d12565b5060408201516121b46040850182612323565b5060608201516121c76060850182611d12565b5060808201516121da608085018261232e565b5060a08201516121ed60a085018261232e565b5060c082015161220060c085018261232e565b5060e0820151610e0b60e085018261230a565b805160009060a08401906122278582611d12565b50602083015161223a6020860182611d12565b50604083015161224d604086018261232e565b50606083015184820360608601526122658282611e0e565b915050608083015184820360808601526114998282611e0e565b80516040808452600091908401906122978282611e67565b915050602083015184820360208601526114998282611d21565b80516040808452600091908401906122c98282611da8565b91505060208301516122de6020860182612319565b509392505050565b805160408301906122f78482612334565b506020820151610e0b6020850182612319565b6001600160a01b038116611d1b565b61ffff8116611d1b565b62ffffff8116611d1b565b80611d1b565b60ff8116611d1b565b6000610d908284611ed7565b602081016117468284611d12565b604081016123658285611d12565b610d906020830184611d12565b604081016123808285611d12565b610d90602083018461232e565b60208082528101610d908184611ea5565b6020808252810161174681611f02565b6020808252810161174681611f48565b6020808252810161174681611f7f565b6020808252810161174681611fc2565b6020808252810161174681611ff4565b602080825281016117468161201a565b602080825281016117468161204c565b6020808252810161174681612072565b60208082528101611746816120a6565b60208082528101611746816120da565b6020808252810161174681612121565b6020808252810161174681612155565b6101008101611746828461217c565b60208082528101610d908184612213565b60208101611746828461232e565b60a0810161249a828861232e565b6124a76020830187611ef9565b81810360408301526124b98186611d6a565b90506124c86060830185611d12565b6124d5608083018461232e565b9695505050505050565b608081016124ed828761232e565b6124fa602083018661232e565b6125076040830185611d12565b81810360608301526124d58184611ea5565b602081016117468284612334565b600061253260405190565b905061253e8282612625565b919050565b60006001600160401b0382111561255c5761255c612698565b5060209081020190565b600061ffff8216915061ffff831692508261ffff0382111561258a5761258a61266c565b500190565b6000821982111561258a5761258a61266c565b6000826125b1576125b1612682565b500490565b60008160001904831182151516156125d0576125d061266c565b500290565b60006001600160a01b038216611746565b6000611746826125d5565b600081611746565b60005b838110156126145781810151838201526020016125fc565b83811115610e0b5750506000910152565b601f19601f83011681018181106001600160401b038211171561264a5761264a612698565b6040525050565b60006000198214156126655761266561266c565b5060010190565b634e487b7160e01b600052601160045260246000fd5b634e487b7160e01b600052601260045260246000fd5b634e487b7160e01b600052604160045260246000fd5b6126b7816125d5565b811461060c57600080fd5b8015156126b7565b6126b7816125e6565b61ffff81166126b7565b62ffffff81166126b7565b806126b7565b60ff81166126b756fea26469706673582212205441cd4fe65208c5eedc0410c4e037cf148793d0fcb1dfbe1195f205ecd0f5c264736f6c63430008040033",
  "linkReferences": {},
  "deployedLinkReferences": {}
}